:020000040800F2
:10000000004000203D240008CD230008D52300082F
:1000100000000000000000000000000000000000E0
:10002000000000000000000000000000DD230008C8
:100030000000000000000000E7230008F123000892
:100040008D2400088D2400088D2400088D240008CC
:100050008D2400088D2400088D2400088D240008BC
:100060008D2400088D2400088D2400088D240008AC
:100070008D2400088D240008012400088D24000828
:10008000192400088D2400088D2400088D24000800
:100090008D2400088D2400088D2400088D2400087C
:1000A0008D2400088D2400088D2400088D2400086C
:1000B0008D2400088D2400088D2400088D2400085C
:1000C00010B5064C2378002B07D1054B002B02D02E
:1000D000044800E000BF0123237010BD0C00002085
:1000E00000000000983D0008044B10B5002B03D021
:1000F0000349044800E000BF10BDC04600000000F6
:1001000010000020983D0008002243088B4274D361
:1001100003098B425FD3030A8B4244D3030B8B4208
:1001200028D3030C8B420DD3FF22090212BA030C11
:100130008B4202D31212090265D0030B8B4219D3F2
:1001400000E0090AC30B8B4201D3CB03C01A524112
:10015000830B8B4201D38B03C01A5241430B8B425A
:1001600001D34B03C01A5241030B8B4201D30B0343
:10017000C01A5241C30A8B4201D3CB02C01A52416A
:10018000830A8B4201D38B02C01A5241430A8B422D
:1001900001D34B02C01A5241030A8B4201D30B0216
:1001A000C01A5241CDD2C3098B4201D3CB01C01A30
:1001B000524183098B4201D38B01C01A524143093A
:1001C0008B4201D34B01C01A524103098B4201D328
:1001D0000B01C01A5241C3088B4201D3CB00C01A95
:1001E000524183088B4201D38B00C01A524143080D
:1001F0008B4201D34B00C01A5241411A00D2014632
:10020000524110467047FFE701B5002000F006F8A4
:1002100002BDC0460029F7D076E770477047C04658
:100220008446100062468C461900634600E0C046D2
:100230001FB500F023FC002801D40021C8421FBDD7
:1002400010B500F063FB4042013010BD10B500F066
:1002500015FC002801DB002010BD012010BDC046A8
:1002600010B500F00BFC002801DD002010BD0120BE
:1002700010BDC04610B500F08DFB002801DC002049
:1002800010BD012010BDC04610B500F083FB002852
:1002900001DA002010BD012010BDC04670B500225B
:1002A0000C4B04000D00FFF7EFFF002804D12000E5
:1002B000290001F0B9FA70BD064B00222000290088
:1002C00000F016FF01F0B0FA80231B069C46604444
:1002D000F1E7C0460000E041F0B5DE46454657462E
:1002E0004E46E0B587B0009201930B031B0B9B4673
:1002F000CA0F4B00040080465B0D029200D16AE1F8
:10030000D44A934200D18CE15946420FC9000A43B6
:10031000802109041143C2009046CF4A8946924683
:100320009A44002300240393009E019F3B031B0B70
:100330009B467B0030005B0DFD0F002B00D128E1B8
:10034000C44A934200D177E15946720FC9000A436B
:100350008021090411438B46BF49F2008C46514667
:100360006344CB1A9A460023029E6E400F2C27D876
:10037000BA49A40009598F46CB464246029E039BC8
:10038000022B16D0032B00D1A6E2012B00D0DFE018
:1003900000220023002490461B052343F607334325
:1003A0004046190007B0F0BCBB46B246A946A0467D
:1003B000F0BD002200249046A64BEDE72E00DFE7BB
:1003C000CB4500D2D4E100D1CFE101235B429C4672
:1003D000444648460027E2445B46150E1B021D4377
:1003E000190C2B04120200951D0C914602910395E5
:1003F000FFF710FF02006A430B04210C80461943EB
:100400008A4209D9009D0123AC465B4261449C4667
:10041000E0448D4200D8FBE1881A0299FFF7FAFE0A
:10042000039A240442430904240C03000C43A2420F
:1004300006D90099013B8C466444A14200D8E1E111
:10044000A01A424612041A4393464B4659461B0CC7
:100450001D0004930B0449460904090C0C001B0CF5
:100460005C43120C6B43884651436A43250CAC46EF
:100470005B186344994203D9802149028C46624447
:10048000190C24041B04240C8A181C19904202D352
:1004900016D1A74214D25B46009D013B4F44059301
:1004A0004F459B41AC465B426344C018854200D334
:1004B000A1E1824200D9F6E100D1F1E1059B9B4622
:1004C0003C1BA742BF41009D801A7F42C01B854252
:1004D00000D1D0E10299FFF79DFE039A0B0442433D
:1004E000210C070019438A4200D978E1881A029941
:1004F000FFF790FE039A240442430904240C0300EE
:100500000C43A24200D95DE14146A41A3A041A43C1
:10051000049D13041B0C594347466B439C46100C27
:1005200047430B0CBC44634468439F4203D9802576
:100530006D02AC4660441F0C09041B04090C3F18F3
:100540005B18BC4200D202E100D1FDE001231A4356
:10055000434B5344002B00DCAEE0510700D098E140
:100560005946C90106D559463E4B194080238B4652
:10057000DB0053443C498B4200DD1AE75946D20860
:10058000490711435A465B0554028846240B5B0D0C
:1005900002E75A46009B1A4300D17EE05B46002BDF
:1005A00000D100E1584601F09FF9020003000B3A28
:1005B0001D27009EBA1A19005846D64008398840AF
:1005C000320002439346009A8A40284953448A469F
:1005D0009A440023C8E65B460343994656D05B46DF
:1005E000002B00D1CDE0584601F07EF90B235B4291
:1005F0009C460200844466461D239B1B2600110076
:100600005846DE40083988403300034399462300AA
:100610008B409846164B00249B1A9A46002303935E
:1006200082E65A46024391462AD100229A46022384
:1006300090460824039377E65A46009B1A430D4BD5
:100640009C46E244002A17D102231C4300239B4608
:10065000023389E6FF07000001FCFFFFB03D000800
:10066000FF030000FFFFFFFEFE070000F303000092
:100670000DFCFFFF01F8FFFF032332001C4373E66C
:100680009A460323D9460C2403934DE6002398464B
:100690009A4601330424039346E601231C430023B6
:1006A0009B46013360E60023802498460026924B47
:1006B000240371E6012252420121C91A382900DDC2
:1006C00066E61F2900DCABE01F204042C31A5846F3
:1006D000D8400300202904D0584688495144884016
:1006E0000243511E8A411A43072319000024114076
:1006F00013420CD00F231340042B00D1F9E0111D3D
:1007000091429B410A005B4259075B021C0BD208D5
:100710000A43904600233FE680244B4624032342AD
:1007200009D05B46234206D11C4324032E00904689
:10073000714B240B30E680244B4624031C432403D6
:10074000029E6D4B240B27E6002B00D100E700989A
:10075000511E84466444844200D284E0BC4200D2EC
:10076000AEE000D1C1E00A00F0E6424500D92CE637
:100770004B46DC07580843465B081C434346DF07EB
:100780002AE601F0B1F815239C4684440200634632
:1007900020321C2B00DC2EE72300083883409946CA
:1007A0000023984636E701F09FF802000300153257
:1007B00020331C2A00DCFBE6009908388140002227
:1007C0008B4602E70099013B8C466444A14200D964
:1007D0009AE6A24200D897E6831E644494E6AC46AB
:1007E0006144013F8D4200D980E68A4200D87DE60F
:1007F000871E61447AE6854200D05FE6B94500D99C
:100800005CE656E6A24200D81AE6831E644417E668
:100810008A4200D800E6AC46831E98466144FBE558
:1008200037481400504482405B4617008340CC4058
:100830007A1E974123433B431A005B46CB40510746
:1008400009D00F211140042905D0111D9142924178
:1008500052429B180A00190200D455E700220123D6
:100860000024904698E50A00BC4200D06EE64B4555
:1008700000D06BE66CE6234B234A5344924500DAE2
:1008800018E7012149420A1D8A42894149428B44A5
:1008900066E60F211140042900D161E61100F2E75C
:1008A000BC4200D80AE602235B429C4600994F44B2
:1008B0004F459B41E3448C465B426344C018FFE5CF
:1008C0004946009D480048458941AC46494261443B
:1008D0008146023A6418C7E780245B4624031C4320
:1008E00024039046044B240B56E59945E8D30A00AF
:1008F000BDE7002308E7C046FF0700003E040000F4
:100900001E040000FF03000002FCFFFFF0B5574685
:10091000DE464E464546E0B50D000400E80F83462E
:100920000903D80F090B824619488C461F0369003A
:100930005E00490D3F0B760D814218D086420FD0E4
:100940000120B1420DD1BC450BD1944209D1D34510
:100950001CD0002905D160462043431E984100E089
:100960000120F0BCBB46B246A946A046F0BD01201E
:100970008E42F6D1614639430F0017432743F0D129
:100980005B465246981A431E9841EAE70020E8E782
:10099000FF070000F0B557464E464546DE46E0B537
:1009A0000D000F03390B83B00400804601915800FD
:1009B000E90F314F400D8C466E0019038246914677
:1009C000760D090BD80FBE421FD0BA450FD0002EAE
:1009D0002FD15546019E3443002D27D10A433AD0EA
:1009E000002C45D100281AD10120404217E01143C4
:1009F0003BD1002E02D1019F2743F3D0844509D17A
:100A00006346002BF0D0604609E0019F27432CD1BC
:100A1000B24524D063460220013B1840013803B0A0
:100A2000F0BCBB46B246A946A046F0BD002CD9D0CA
:100A3000E4E75446002CEDD08445EBD15645E9DC83
:100A4000DEDB019B8B42E5D8DAD1C845E2D8002035
:100A5000C845E4D2D4E70020002CE0D0DAE7114307
:100A600003D18445D6D10020D9E702204042D6E701
:100A70008445E6D0CEE7C046FF070000F0B55746F4
:100A80004E464546DE46E0B50D000F0304008046A5
:100A9000E80F390B844683B05800304F400D019168
:100AA0001E03690082469146490D360BD80FB942A4
:100AB00020D0BA450FD000292BD101990C435146C3
:100AC000002937D1324338D0002C44D1002819D125
:100AD0000120404216E0164313D1002902D1019FA4
:100AE0002743F3D0844520D063460220013B1840C1
:100AF000013807E0019F274303D18A45F4D116430B
:100B00001FD0022003B0F0BCBB46B246A946A046A7
:100B1000F0BD5446002CE7D08445E5D15145E3DCD7
:100B200003DB019BB342DFD80FD06346002BCFD04D
:100B30006046E7E7002CC9D0D4E70020002CE1D0C4
:100B4000D2E78445D0D10020DCE7C845CCD80020CE
:100B5000C845D7D2E9E78445E3D0C5E7FF070000E1
:100B6000F0B55746DE464E464546E0B51F000B033E
:100B70001B0B16009A46CA0F4B000400934687B021
:100B80005B0D00D1D5E0BB4A934200D1F8E051465D
:100B9000420FC9000A43802109041143C200914653
:100BA000B54A8A469D180023984602933C037B0071
:100BB000FA0F3000240B5B0D009200D196E0AD4A95
:100BC000934231D0720FE400224380242404144362
:100BD000A94AF000944663445B195A1C01924246AC
:100BE00000260A2A42DC5A4600994A409346424669
:100BF000022A32DC013A012A00D949E1022E00D151
:100C0000CAE0012E3DD100230024002210005A46E4
:100C10001B052343D2071343190007B0F0BCBB46A2
:100C2000B246A946A046F0BD924B2643EB18002ED3
:100C300000D1BBE00322414611435A468846009941
:100C40004A40802109018C462900614401914146B6
:100C50000A2900DD33E293460326424601279740E6
:100C6000A6213A00C9000A400F4231D0029E022E4E
:100C700000D135E2032E00D1D2E154464846012E80
:100C8000C1D0019A7D4B94466344002B00DCC0E048
:100C9000420709D00F220240042A05D0021D8242D9
:100CA0008041404224181000E20106D5744B019A9D
:100CB0001C4080239446DB006344724A93426BDC01
:100CC0006207C00864025B050243240B5B0D9DE7CD
:100CD000902189000F4263D188223A4200D1D7E0A7
:100CE000009BA2469B4681460296BFE72300334302
:100CF00000D17FE0002C00D1ADE1200000F0F4FD38
:100D0000020003000B3A1D201900821A3000083936
:100D1000D0408C400443300088405B4AEB1A944634
:100D200063445A1C0192424600260A2A00DC5AE714
:100D30009CE753460343994654D05346002B00D1B9
:100D400077E1504600F0D0FD0B235B429C46020049
:100D5000844411005046083988401D23804660466F
:100D60001B1A2000D8400300404603439A46230044
:100D70008B4099460023444D9846AD1A029315E7DF
:100D800052460243914626D100221D00022392467C
:100D900008329046029309E700240022354B35E7DC
:100DA000002380249B462403324B2FE70222414636
:100DB00011438022120194462A006244884601921F
:100DC0000A2900DD52E75A460020009904004A40F3
:100DD000934602260BE70C221D0003238146904612
:100DE0000293E3E600239A4604339846033B00252A
:100DF0000293DBE6424601331A432B0090465A1C0D
:100E0000019242460024002001260A2A00DCEAE67C
:100E10002CE70122D21A382A00DDF4E61F2A00DC72
:100E20002AE11F214942CB1A2100D9400B00202A78
:100E300005D0164A019D94466544AC402043421EAD
:100E400090411843072319000024014003420CD0AD
:100E50000F230340042B00D140E1031D8342A44132
:100E60001800644261076402240BC20800230A438D
:100E7000CCE6C046FF07000001FCFFFFFF030000B7
:100E8000FFFFFFFEFE0700000DFCFFFF3E04000019
:100E900049464A460904090C0D00160C020C0004D0
:100EA000000C4543AC4605007543A84615000F00ED
:100EB0007543009202952A00009D6F4365462D0CF4
:100EC000A94647444F44B84505D91500802252022F
:100ED0009046454402953D0C039565462D043F041C
:100EE0002D0CAC463D0065440495250C2404240CCF
:100EF000AC4625007543A84665460F00694341444A
:100F000089466743390C49446E43884503D980229A
:100F10005202904646440D0CA846350045440595BE
:100F2000039D3F04A8463F0C0904C919884445465F
:100F3000039555462E04360C2F0C35004543784357
:100F400081463800A8462D0CAA46009A50437243A9
:100F50004A445244914503D980256D02A94648442C
:100F6000150CA94645462D042D0CA84665467D4323
:100F7000120448449044A9463200654662436E43D9
:100F80007C43170C3619BF19BC4203D98024640274
:100F9000A446E144029C039EA446059D66448E42FD
:100FA0008941AC4612043C04120CA2186244494226
:100FB00054184644A4464645A44182466442A0468D
:100FC000AA4292418C458941E244D044494252426E
:100FD0000A43A045A44182458941644249420C43E9
:100FE00041463F0CD2191219CC0D049970020843E6
:100FF000411E884141464A44F60D5202304349029F
:1010000014430843D20135D501224308024013435B
:10101000E0071843640834E6009BA2469B468146DD
:101020008024534624031C4324034A462E4B240B9E
:10103000ECE500F059FC15239C468444020063460D
:1010400020321C2B00DC84E600239946230008385C
:1010500083409A468EE600F047FC020003001532FA
:1010600020331C2A00DC4EE602003400083A00203F
:10107000944052E6019304E61C4B21009C46030079
:10108000019DD3406544A94019430300AB40581E5D
:10109000834119430800D4404B0709D00F230B406C
:1010A000042B05D00B1D8B428041404224181800B0
:1010B000230200D4D6E6012300240022A6E50F294E
:1010C000AAD1802352461B031A42A9D01C42A7D1A1
:1010D0001C43009B02009B46034B97E50024C1E69E
:1010E0000024014B220091E5FF0700001E040000D0
:1010F000F0B54E464546DE465746E0B585B0009011
:1011000001910C034F00CE0F610A009CB046640FA2
:101110000C4300997F0DC80011001A001B039C4668
:101120000091019251004B0D9946019B009DD90FF2
:1011300063466A0F5B0A1343EA0094469346C14A2A
:1011400003900293914500D1CDE0012569404D46C1
:101150007D1BAA468E4200D180E0002D00DC35E3E5
:101160004946002900D1DFE0974200D194E1524680
:101170000125382A19DC8022029B120413430293B2
:1011800052461F2A00DDE3E1534620226146029DBC
:10119000D21A9540D9400D43614691400A00511E34
:1011A0008A411543029ADA40A41A451BA84280419D
:1011B0004042241A230200D43DE16402640A002C58
:1011C00000D147E1200000F08FFB0300083B202105
:1011D0002800CA1AD0409C4002009D4022439F42F2
:1011E00000DD77E1D81B0130091A2C008D40C44086
:1011F0006B1E9D411300C2408B4025430027140005
:101200001D436B0709D00F232B40042B05D02B1D4A
:10121000AB42AD416D4264191D00230200D440E190
:10122000884A0137974200D101E1012643468649A9
:10123000ED0821404A072A437C054D022D0B640D21
:101240001E4024052C43F60734431000210005B04E
:10125000F0BCBB46B246A946A046F0BD002D00DC5E
:10126000D0E24946002900D0D4E06146029B1943F0
:1012700000D12BE1691E012D00D1D9E1954200D1A9
:101280000AE10125382917DC8A4653461F2B00DD69
:10129000E7E12022D21A029B614693401D0053468B
:1012A000D940634693401A000D43511E8A4153466C
:1012B0001543029ADA40A4182D1885428041404215
:1012C0002418230200D4B6E05E4B01379F4200D1C0
:1012D000ADE001215C4B6A081C4029400A43E50748
:1012E000154364088DE7594A029B92466246BA4408
:1012F0001A432CD08E422ED05246002A60D0002FA6
:1013000000D1DBE063460E00029CD808620702436E
:10131000E4081300234300D154E280252D03254324
:101320002D03484C2D0B8CE76146029B194300D1DD
:10133000CCE029000139012D00D188E1954200D18E
:10134000AAE00125382900DD2FE78A4618E70122A7
:1013500051408E42D0D15346002B00D1BEE0002F29
:1013600000D038E1CA462200024300D1E2E15346F0
:10137000591E012B00D10DE2324A924500D1D2E133
:101380000127382913DC1F2900DDEEE12022029B12
:10139000521A250007009A46CC4090409540CF4015
:1013A000A244421E904153462F43074302933D00FF
:1013B000654465459241029B52424F46D41880E7EE
:1013C000234A7D1C154200D0AAE062462500029BFC
:1013D00005431A43002F00D0F5E0002D00D16BE14A
:1013E000002A00D152E16346C51A029BE21AA842C4
:1013F0009B415B42D31A1A0200D4D5E163461D1A01
:10140000AC4592410126029B52421C1B8846A41AFD
:101410000E40F6E697423FD052460125382A00DDBD
:101420004AE78022029B1204134302932DE73C00FB
:101430000025002205E707232B40002B00D0E2E621
:101440006BE0C046FF070000FFFF7FFF01F8FFFFD2
:10145000FE070000280000F047FA030018331F2B96
:1014600000DCB4E62A00083882409F4200DDB9E083
:10147000DB1B581C1F2800DCA0E115001F3BDD40D2
:10148000202805D040231B1A9A40531E9A41154329
:10149000072300272B40D0E7C00862070243E40877
:1014A00037E7EA0863071A43D34BE4089F4200D1A9
:1014B0002FE72403250B7C05640DC2E6CA462200F3
:1014C000024358D163460E00029C0393039B574688
:1014D000DA08E7E7C94CFF1A144092E6C84D7A1CB7
:1014E0002A4200D084E022000243002F00D0EFE027
:1014F000002A00D1E5E0624602990A4300D1C5E026
:101500006346C5188C468542804164444042241895
:10151000230202D5B94B01371C40BA460395D5E7E3
:101520006246851AA842924152429146029BE31AB2
:101530001A004B46D21A130091461A026CD44A463E
:101540004C462A4300D03AE600260024002578E6DF
:10155000029953460D00203AD540202B06D0402258
:10156000D21A0B00934062461A4393465B465A1EBA
:1015700093411D4319E653465A1E012B00D1C6E084
:101580009D4EB24500D1BDE688460E000125382AA1
:1015900010DC1F2A7FDC20212500891A07008840E3
:1015A0008D40D740D440411E8841029B3D431B1BC8
:1015B000054302936246551BAC459241029B524241
:1015C0004F469C1AF6E5002D00D0B7E0002A00D166
:1015D000F0E001260E4063460298D90842070A430C
:1015E000C40896E6854CFF1A14406207E40860E7D9
:1015F00081498A4200D1C9E06346C11881428041D5
:10160000029B4042E3181B18DD075C0807234908CA
:101610000D4317002B4010E763461D1AAC4592415D
:101620000126029B52421C1B8846A41A0E40C6E5A6
:101630006346C518029B854280419C4640426444F3
:1016400024180127230200D4F5E6022741E6634669
:10165000C51AA8428041029B4042E41A0127241A7D
:10166000A8E5029D52462B00203AD340190053466C
:10167000202B06D04022D21A2B00934062461A43F8
:1016800093465D466B1E9D410D4315E66207C008FB
:101690000243E4080DE7110027002039CF40202A3B
:1016A00005D040218A1A9440250005430395039DE7
:1016B0006A1E95413D437DE7002A00D144E701269B
:1016C0000E406346D908029B5A070A43DC08F0E63D
:1016D000002A28D06246029FC0083A4300D1DCE6C7
:1016E000620710438022E4081203144209D0FD0867
:1016F000154206D1634601262C00D8087B07184303
:101700000E40420FC000C0085207024301E6634684
:101710001D1AAC459241029B52421C1B0E0088468A
:101720000127A41A46E56346D908029B5A070A43D3
:10173000DC08EEE56346029C0393C7E6C008002A76
:1017400000D1AAE6620710438022E4081203144283
:10175000D7D0029FFD081542D3D163460126D80891
:101760007B072C0018430E40CBE70A002700203AE5
:10177000D740202905D04022521A94402500054325
:101780000395039D6A1E95412F4310E61400002522
:10179000002256E5029B60449946604592414C44C4
:1017A00052420500A4184CE71A001C002A4300D03E
:1017B000B3E6C9E6802400262403AEE520210025F7
:1017C000091A17E5002200250B4C3AE5002D00D13F
:1017D000F6E54B46DA1B9246002F00D16FE6382A19
:1017E00005DC80263604344388460E00D1E6884660
:1017F0000E000125DEE6C046FF070000FFFF7FFF69
:10180000FE070000002D00D168E64B46D91B002FD3
:1018100001D18A46A7E50127382900DDC7E58022E6
:1018200012041443AFE5C0460B00020070B5164D1C
:101830000C0382B04900002000920193240B490D53
:10184000DE0FA94204DD1148814203DD104BF01880
:1018500002B070BD8020400320430E4C641A1F2C40
:1018600008DD0D4B5B1AD84003005842002EEFD123
:101870001800EDE7094B009A9C46030061448B4039
:10188000E2401343F1E7C046FE0300001D040000E0
:10189000FFFFFF7F3304000013040000EDFBFFFF98
:1018A00010B5041E10D000F01FF80E4B1B1A5B057C
:1018B0005B0D0A280FDC0B222100121AD1401530D3
:1018C0000A038440120B01E0002300221B0513438E
:1018D0002000190010BD22000B38824012030024A2
:1018E000120BF3E71E0400001C2101231B04984285
:1018F00001D3000C10391B0A984201D3000A0839A1
:101900001B09984201D30009043902A2105C401857
:101910007047C046040302020101010100000000FB
:1019200000000000B0B588B000AFF86008007A6031
:1019300019000A243B19021C1A800823FB180A1CF0
:101940001A800023FB610023BB611623FB180022D1
:101950001A803B191988FB680122180001F093F8DE
:10196000384B1B6800225A62C0463023FB181B68A4
:101970005B6A092BF9D90A23FB181988FB68002236
:10198000180001F080F800F0DDFD03003B61C04667
:101990000823FB181A887B681100180001F056F81C
:1019A000031E07D13B690A331C0000F0CBFD030086
:1019B0009C42EDD83023FB181B685B6AFB6100F08A
:1019C000C1FD03003B61C0460823FB181A887B68F1
:1019D0001100180001F03AF8031E07D03B693233BA
:1019E0001C0000F0AFFD03009C42EDD83023FB1833
:1019F0001B685B6ABB61BA69FB69D31A1800FFF701
:101A00004FFF114A114BFFF7ABF802000B0010001B
:101A1000190000228023DB05FEF75EFC02000B00AC
:101A200016257C1910001900FEF738FC03002380EE
:101A3000322000F091FD7B191B881800BD4608B0CC
:101A4000B0BDC046280000209CC420B07268A13FF1
:101A500080B500AF0E4B01222021180001F013F8D1
:101A60000B4B00224021180001F00DF880239B0051
:101A700007480122190001F006F880235B000448A2
:101A80000022190000F0FFFFC046BD4680BDC046E1
:101A90000008004880B500AF0E4B0022202118003E
:101AA00000F0F1FF0B4B01224021180000F0EBFF8A
:101AB00080239B0007480022190000F0E4FF8023E8
:101AC0005B0004480122190000F0DDFFC046BD465E
:101AD00080BDC0460008004880B500AF0E4B012213
:101AE0002021180000F0CFFF0B4B002240211800EE
:101AF00000F0C9FF80239B0007480022190000F076
:101B0000C2FF80235B0004480122190000F0BBFFE4
:101B1000C046BD4680BDC0460008004880B500AF45
:101B20000E4B00222021180000F0ADFF0B4B0122CC
:101B30004021180000F0A7FF80239B0007480122E6
:101B4000190000F0A0FF80235B0004480022190068
:101B500000F099FFC046BD4680BDC0460008004861
:101B600080B500AF0E4B00222021180000F08BFF43
:101B70000B4B00224021180000F085FF80239B00C2
:101B800007480022190000F07EFF80235B00044814
:101B90000022190000F077FFC046BD4680BDC04658
:101BA0000008004880B500AF024B00221A60C04612
:101BB000BD4680BDB800002080B500AF024B0122B9
:101BC0001A70C046BD4680BDBC00002080B500AF85
:101BD000024B00221A70C046BD4680BDBC000020EA
:101BE000F0B5CE46474680B59BB012AF00F050FC32
:101BF00000F0F4F900F0DCFA00F084FA00F02AFAC0
:101C00006D4B180001F0C8FC6C4B180001F07AFC19
:101C10006A4B180001F076FC694B00220421180081
:101C200000F031FF0E23FC18654E654D634A6B468C
:101C30001800110048231A0002F0A4F8082332000B
:101C400004212800FFF76EFE030023800023FB61C0
:101C50001B23FB1800221A701A23FB1800221A708B
:101C60001923FB1800221A701823FB1800221A707F
:101C70001723FB1800221A701623FB1800221A7073
:101C80001523FB1800221A701423FB1800221A7067
:101C90001323FB1800221A701223FB1800221A705B
:101CA0001123FB1800221A701023FB1800221A704F
:101CB000FA23BB601A23FB181B7801225340DBB2C6
:101CC000002BF7D01923FB181B7801225340DBB2FD
:101CD000002B00D17EE0FFF7BBFE3C1D384E384D97
:101CE000364A6B461800110048231A0002F04AF8E1
:101CF0000823320004212800FFF714FE030023808C
:101D0000BB1C391D0E22BA18098812888A1A1A803B
:101D1000BB1C1B88092B11D9BB1C1B88294A934269
:101D20000CD818217B181B7801225340DBB2002B02
:101D300004D07B1801221A70FFF73EFF1823FB180E
:101D40001B78002BB6D0BB1C1B88072B04D9BB1CEF
:101D50001B881D4A9342ADD9FFF738FF1B4B1A6809
:101D600096235B009A4220D3FFF7FAFE174B1B68BD
:101D70001800FFF795FD0022154BFEF7F1FE02005B
:101D80000B0010001900FEF789FA0300FB6119230C
:101D9000FB1801221A70FA239B00180000F0DCFBEC
:101DA000FFF700FFFFF708FF84E71823FB18002266
:101DB0001A70FFF7F7FE7DE7700000202800002072
:101DC000000800480F270000E7FD0000B8000020D1
:101DD0000000E83F1B23FB181B7801225340DBB2B5
:101DE000002B01D0FFF756FE774B1B68FA699A4229
:101DF0002AD81B23FB181B7801225340DBB2002B8F
:101E000022D01623FB181B7801225340DBB2002B93
:101E100007D11323FB181B7801225340DBB2002BA0
:101E200012D0FFF79DFEFFF7D1FEFFF7BBFEFA23AE
:101E30009B00180000F090FB1623FB1801221A707B
:101E40001B23FB1801221A7017243B191B7801224F
:101E50005340DBB2002B09D01623FB181B78002B54
:101E600004D0FFF7A9FE3B1901221A7016243B1972
:101E70001B78002B1ED015257B191B78012253409F
:101E8000DBB2002B16D0FFF749FE4F4B1B68BA6838
:101E90009A420FD83B1900221A707B1901221A703E
:101EA000FFF75EFEFFF792FEFFF77CFE1123FB18A3
:101EB00001221A701123FB181B78002B39D0102235
:101EC000BB181B7801225340DBB2002B31D0FFF747
:101ED000E1FDBC1D8023DE003C49894680231D01B5
:101EE0003A4988463A4A6B461800110048231A00BE
:101EF00001F048FF33004A4629004046FFF712FD33
:101F000003002380BB1D1B880A2B12D81022BB188C
:101F100001221A701123FB1800221A70FFF720FE0D
:101F2000FA239B00180000F017FB1323FB18012273
:101F30001A701323FB181B78002B0CD014243B19A8
:101F40001B7801225340DBB2002B04D0FFF734FE94
:101F50003B1901221A701326BB191B78002B00D1E4
:101F6000A8E61223FB181B7801225340DBB2002B9A
:101F700000D19FE6FFF7B0FD134B1B681800FFF779
:101F80008FFC04000D00B868FFF78AFC114A124B61
:101F9000FEF7E6FD02000B0020002900FEF774F9B1
:101FA000031E10D0BB1900221A701223FB18012245
:101FB0001A70FFF7D5FDFFF709FEFFF7F3FD1A23AF
:101FC000FB1801221A7075E6B800002000080048CE
:101FD00028000020666666666666F63F90B593B098
:101FE00000AF14243B19180034231A00002101F01B
:101FF0009DFE3B1D180010231A00002101F096FEE3
:102000003B1920221A603B1901221A623B19002257
:102010005A623B19180000F053FD031E01D000F076
:1020200067F93B1D07221A603B1D03225A603B1DC6
:1020300000229A603B1D0022DA603B1D012118003E
:1020400001F0C4F8031E01D000F052F9C046BD46AD
:1020500013B090BD80B586B000AF0823FB18180000
:1020600010231A00002101F061FE3B001800082334
:102070001A00002101F05AFE1F4B204A1A601E4B25
:102080002F225A601C4B00229A601B4B1C4ADA60BC
:10209000194B00221A61184B00225A61164B00227C
:1020A0009A61154B180001F0DDF9031E01D000F014
:1020B0001FF908217B18802252011A607A180E4BF2
:1020C0001100180001F0A8FB031E01D000F010F968
:1020D0003B0000221A603B0000225A603A00064B87
:1020E0001100180001F0B4FD031E01D000F000F94A
:1020F000C046BD4606B080BD28000020002C01402F
:10210000FFFF000080B586B000AF0823FB18180061
:1021100010231A00002101F009FE3B0018000823DB
:102120001A00002101F002FE1E4B1F4A1A601D4BCF
:102130002F225A601B4B00229A601A4B1B4ADA600E
:10214000184B00221A61174B00229A61154B180098
:1021500001F088F9031E01D000F0CAF808217B18AD
:10216000802252011A607A180E4B1100180001F0FB
:1021700053FB031E01D000F0BBF83B0000221A60A5
:102180003B0000225A603A00064B1100180001F093
:102190005FFD031E01D000F0ABF8C046BD4606B09F
:1021A00080BDC0467000002000040040E70300002E
:1021B00090B589B000AF0C243B19180014231A0005
:1021C000002101F0B3FD394B5A69384B80210903D6
:1021D0000A435A61354B5A6980231B031340BB6085
:1021E000BB68324B5A69314B8021C9030A435A619B
:1021F0002E4B5A698023DB0313407B607B682B4B9B
:102200005A692A4B802189020A435A61274B5A692D
:1022100080239B0213403B603B682549254B0022ED
:10222000180000F030FC9023DB050022202118006C
:1022300000F029FC3B191E4A1A603B1901225A6022
:102240003B1900229A603B190022DA603B19194AB7
:102250001900100000F082FA21007B188122D200C0
:102260001A600C003B1900225A603B1900229A6048
:102270003B19104A1900100000F070FA21007B1879
:1022800020221A607B1801225A607B1800229A6073
:102290007B180022DA607A189023DB051100180001
:1022A00000F05CFAC046BD4609B090BD0010024087
:1022B000640B00000008004880B582B000AF786071
:1022C0007B681B68074A934208D1074B1B78002B99
:1022D00004D0064B1B685A1C044B1A60C046BD460E
:1022E00002B080BD00040040BC000020B800002007
:1022F00080B500AF72B6C046C046FDE780B582B07B
:1023000000AF0F4B9A690E4B01210A439A610C4BA7
:102310009B69012213407B607B68094BDA69084B9B
:10232000802149050A43DA61054BDA6980235B05A0
:1023300013403B603B68C046BD4602B080BDC0460E
:102340000010024080B584B000AF78607B681B68E5
:102350001B4A934216D11B4B9A691A4B80210901E3
:102360000A439A61174B9A6980231B011340FB6053
:10237000FB68002200210E2000F0BEF90E2000F0C4
:10238000D0F918E07B681B680F4A934213D10D4BBC
:10239000DA690C4B02210A43DA610A4BDB6902223B
:1023A0001340BB60BB6800220021102000F0A4F99C
:1023B000102000F0B6F9C046BD4604B080BDC0464E
:1023C000002C0140001002400004004080B500AF26
:1023D000C046FDE780B500AFC046FDE780B500AF61
:1023E000C046BD4680BD80B500AFC046BD4680BD7D
:1023F00080B500AF00F094F8C046BD4680BD000037
:1024000080B500AF034B180001F018F9C046BD4677
:1024100080BDC0462800002080B500AF034B1800E7
:1024200001F00CF9C046BD4680BDC04670000020DA
:1024300080B500AFC046BD4680BD00000D48854652
:10244000FFF7F6FF0C480D490D4A002302E0D4586F
:10245000C4500433C4188C42F9D30A4A0A4C0023EE
:1024600001E013600432A242FBD301F067FCFFF7E6
:10247000B7FBFEE700400020000000200C00002019
:10248000283E00080C000020C4000020FEE70000E9
:1024900080B500AF074B1A68064B10210A431A603B
:1024A000002000F009F8FFF729FF00231800BD46BF
:1024B00080BDC0460020024090B583B000AF786078
:1024C000144B1C68144B1B781900FA239800FDF775
:1024D0001BFE030019002000FDF716FE0300180084
:1024E00000F02FF9031E01D001230FE07B68032BBE
:1024F0000BD8796801235B420022180000F0FCF839
:10250000064B7A681A60002300E001231800BD46DC
:1025100003B090BD0000002008000020040000204F
:1025200080B500AF054B1B781A00054B1B68D2180D
:10253000034B1A60C046BD4680BDC046080000205F
:10254000C000002080B500AF024B1B681800BD46DC
:1025500080BDC046C000002080B584B000AF786068
:10256000FFF7F0FF0300BB607B68FB60FB68013393
:1025700005D00A4B1B781A00FB689B18FB60C0460D
:10258000FFF7E0FF0200BB68D31AFA689A42F7D857
:10259000C046C046BD4604B080BDC046080000200D
:1025A00080B582B000AF0200FB1D1A70FB1D1B78C6
:1025B0007F2B09D8FB1D1B781A001F231A40044BE0
:1025C000012191400A001A60C046BD4602B080BD9C
:1025D00000E100E090B583B000AF02003960FB1D60
:1025E0001A70FB1D1B787F2B28D82F4AFB1D1B78E8
:1025F0005BB29B08C0339B009B58FA1D12781100F8
:1026000003220A40D200FF2191400A00D2431A401F
:1026100011003B689B01FF221A40FB1D1B7818002C
:1026200003230340DB009A401F48FB1D1B785BB26D
:102630009B080A43C0339B001A5031E01B4AFB1D24
:102640001B7819000F230B40083B9B0806339B00A7
:10265000D31804331B68FA1D1278110003220A40B4
:10266000D200FF2191400A00D2431A4011003B687A
:102670009B01FF221A40FB1D1B7818000323034017
:10268000DB009A400948FB1D1B781C000F232340E8
:10269000083B9B080A4306339B00C31804331A60A7
:1026A000C046BD4603B090BD00E100E000ED00E093
:1026B00080B582B000AF78607B685A1E80235B04CF
:1026C0009A4201D3012310E00A4B7A68013A5A601A
:1026D00001235B4203211800FFF77CFF054B00221A
:1026E0009A60044B07221A6000231800BD4602B00E
:1026F00080BDC04610E000E080B584B000AFB96096
:102700007A600F217B18021C1A70BA687B181B783C
:102710005BB211001800FFF75DFFC046BD4604B074
:1027200080BD80B582B000AF0200FB1D1A70FB1D9A
:102730001B785BB21800FFF733FFC046BD4602B0FE
:1027400080BD80B582B000AF78607B681800FFF76D
:10275000AFFF03001800BD4602B080BD80B586B053
:1027600000AF7860396000237B6155E13B681B68EE
:1027700001217A6991400A001340FB60FB68002B3D
:1027800000D146E13B685B6803221340012B05D072
:102790003B685B6803221340022B30D17B689B6847
:1027A0003B617B695B0003229A401300DA433B697B
:1027B00013403B613B68DA687B695B009A40130019
:1027C0003A6913433B617B683A699A607B685B684E
:1027D0003B6101227B699A401300DA433B69134055
:1027E0003B613B685B681B0901221A407B699A4088
:1027F00013003A6913433B617B683A695A603B684E
:102800005B6803221340032B17D07B68DB683B61B6
:102810007B695B0003229A401300DA433B69134053
:102820003B613B689A687B695B009A4013003A6998
:1028300013433B617B683A69DA603B685B6803225B
:102840001340022B23D17B69DA087B68083292009F
:10285000D3583B617B69072213409B000F229A40AB
:102860001300DA433B6913403B613B681A697B699B
:1028700007210B409B009A4013003A6913433B61C8
:102880007B69DA087B68083292003969D1507B682D
:102890001B683B617B695B0003229A401300DA43AB
:1028A0003B6913403B613B685B6803221A407B69CC
:1028B0005B009A4013003A6913433B617B683A69B5
:1028C0001A603B685A68C0239B02134000D1A0E005
:1028D000574B9A69564B01210A439A61544B9B69A5
:1028E00001221340BB60BB68524A7B699B080233DC
:1028F0009B009B583B617B69032213409B000F2286
:102900009A401300DA433B6913403B617A68902395
:10291000DB059A4219D07B68474A934213D07B6803
:10292000464A93420DD07B68454A934207D07B6864
:10293000444A934201D1042308E0052306E003231F
:1029400004E0022302E0012300E000237A6903216E
:102950000A40920093403A6913433B6135497B69D1
:102960009B0802339B003A695A50374B9B683B6186
:10297000FB68DA433B6913403B613B685A6880233C
:102980005B03134003D03A69FB6813433B612E4B52
:102990003A699A602C4BDB683B61FB68DA433B6920
:1029A00013403B613B685A6880239B03134003D06C
:1029B0003A69FB6813433B61234B3A69DA60224B67
:1029C0005B683B61FB68DA433B6913403B613B68F2
:1029D0005A6880239B02134003D03A69FB68134373
:1029E0003B61194B3A695A60174B1B683B61FB68A6
:1029F000DA433B6913403B613B685A6880235B02C2
:102A0000134003D03A69FB6813433B610E4B3A69AC
:102A10001A607B6901337B613B681A687B69DA4025
:102A2000131E00D0A2E6C046C046BD4606B080BD1B
:102A30000010024000000140000400480008004867
:102A4000000C0048001000480004014080B584B02C
:102A500000AF78600A00BB1C1A807B681B69BA1C37
:102A60001288134004D00F23FB1801221A7003E0D0
:102A70000F23FB1800221A700F23FB181B78180075
:102A8000BD4604B080BD80B582B000AF786008005C
:102A90001100BB1C021C1A807B1C0A1C1A707B1CB8
:102AA0001B78002B04D0BB1C1A887B689A6103E05A
:102AB000BB1C1A887B689A62C046BD4602B080BDC6
:102AC00080B588B000AF78607B68002B02D101230D
:102AD00000F076FB7B681B680122134000D18EE07A
:102AE000C54B5B680C221340042B0ED0C24B5B68B5
:102AF0000C221340082B17D1BF4B5A68C0235B022E
:102B00001A4080235B029A420ED1BB4B1A68802385
:102B10009B02134000D171E07B685B68002B00D002
:102B20006CE0012300F04CFB7B685B68012B07D154
:102B3000B14B1A68B04B802149020A431A602FE05A
:102B40007B685B68002B0CD1AB4B1A68AA4BAB4976
:102B50000A401A60A84B1A68A74BA9490A401A6094
:102B60001EE07B685B68052B0ED1A34B1A68A24B55
:102B70008021C9020A431A609F4B1A689E4B80212C
:102B800049020A431A600BE09B4B1A689A4B9B4917
:102B90000A401A60984B1A68974B99490A401A6084
:102BA0007B685B68002B14D0FFF7CCFC0300BB6193
:102BB00008E0FFF7C7FC0200BB69D31A642B01D9F8
:102BC0000323FDE28C4B1A6880239B021340F0D054
:102BD00015E0FFF7B7FC0300BB6108E0FFF7B2FCAC
:102BE0000200BB69D31A642B01D90323E8E2824BAC
:102BF0001A6880239B021340F0D100E0C0467B6836
:102C00001B680222134000D16CE07B4B5B680C22F6
:102C100013400ED0784B5B680C221340082B1FD159
:102C2000754B5A68C0235B021A4080231B029A42EC
:102C300016D1714B1B680222134005D07B68DB68FC
:102C4000012B01D00123BBE26B4B1B68F82293439D
:102C500019007B681B69DA00674B0A431A6041E080
:102C60007B68DB68002B24D0634B1A68624B012120
:102C70000A431A60FFF766FC0300BB6108E0FFF738
:102C800061FC0200BB69D31A022B01D9032397E22E
:102C9000594B1B6802221340F1D0574B1B68F82296
:102CA000934319007B681B69DA00534B0A431A608F
:102CB00018E0514B1A68504B01218A431A60FFF704
:102CC00041FC0300BB6108E0FFF73CFC0200BB696C
:102CD000D31A022B01D9032372E2474B1B6802224D
:102CE0001340F1D17B681B680822134036D07B6803
:102CF000DB69002B19D0404B5A6A3F4B01210A4334
:102D00005A62FFF71FFC0300BB6108E0FFF71AFCE3
:102D10000200BB69D31A022B01D9032350E2364BC0
:102D20005B6A02221340F1D018E0334B5A6A324BEF
:102D300001218A435A62FFF705FC0300BB6108E0EA
:102D4000FFF700FC0200BB69D31A022B01D9032351
:102D500036E2294B5B6A02221340F1D17B681B6883
:102D60000422134000D1B5E01F203B1800221A7046
:102D7000214BDA6980235B05134010D11E4BDA69C1
:102D80001D4B802149050A43DA611B4BDA69802318
:102D90005B051340FB60FB683B1801221A70194B5E
:102DA0001A6880235B0013401AD1164B1A68154B22
:102DB000802149000A431A60FFF7C4FB0300BB618E
:102DC00008E0FFF7BFFB0200BB69D31A642B01D9EF
:102DD0000323F5E10B4B1A6880235B001340F0D00E
:102DE0007B689B68012B0FD1034B1A6A024B0121B0
:102DF0000A431A6236E0C04600100240FFFFFEFFA1
:102E0000FFFFFBFF007000407B689B68002B0CD12C
:102E1000CA4B1A6AC94B01218A431A62C74B1A6A04
:102E2000C64B04218A431A621CE07B689B68052B11
:102E30000CD1C24B1A6AC14B04210A431A62BF4B20
:102E40001A6ABE4B01210A431A620BE0BB4B1A6A95
:102E5000BA4B01218A431A62B84B1A6AB74B042154
:102E60008A431A627B689B68002B14D0FFF76AFBC9
:102E70000300BB6109E0FFF765FB0200BB69D31AE1
:102E8000AF4A934201D903239AE1AC4B1B6A022259
:102E90001340F0D013E0FFF755FB0300BB6109E0DE
:102EA000FFF750FB0200BB69D31AA54A934201D930
:102EB000032385E1A14B1B6A02221340F0D11F239B
:102EC000FB181B78012B05D19C4BDA699B4B9D4964
:102ED0000A40DA617B681B681022134063D07B686C
:102EE0005B69012B2AD1954B5A6B944B04210A4301
:102EF0005A63924B5A6B914B01210A435A63FFF775
:102F000021FB0300BB6108E0FFF71CFB0200BB696B
:102F1000D31A022B01D9032352E1884B5B6B0222A7
:102F20001340F1D0854B5B6BF822934319007B680B
:102F30009B69DA00814B0A435A6334E07B685B6922
:102F4000053311D17D4B5A6B7C4B04218A435A6364
:102F50007A4B5B6BF822934319007B689B69DA001C
:102F6000764B0A435A631EE0744B5A6B734B042131
:102F70000A435A63714B5A6B704B01218A435A635F
:102F8000FFF7E0FA0300BB6108E0FFF7DBFA02009D
:102F9000BB69D31A022B01D9032311E1674B5B6B89
:102FA00002221340F1D17B681B68202213405CD0C1
:102FB000624B5B680C2213400C2B0ED05F4B5B689E
:102FC0000C221340082B14D15C4B5A68C0235B02BF
:102FD0001A40C0235B029A420BD1584B5A6B802394
:102FE0009B02134040D07B681B6A012B3CD001231D
:102FF000E6E07B681B6A002B1BD0504B5A6B4F4B93
:10300000802149020A435A63FFF79CFA0300BB611F
:1030100008E0FFF797FA0200BB69D31A022B01D927
:103020000323CDE0454B5A6B80239B021340F0D025
:103030001BE0424B5A6B414B43490A405A63FFF72E
:1030400081FA0300BB6108E0FFF77CFA0200BB696C
:10305000D31A022B01D90323B2E0384B5A6B8023D9
:103060009B021340F0D100E0C0467B685B6A002BF6
:1030700000D1A4E0314B5B680C221340082B00D137
:1030800078E07B685B6A022B4CD12C4B1A682B4B87
:103090002E490A401A60FFF755FA0300BB6108E0A9
:1030A000FFF750FA0200BB69D31A022B01D90323A0
:1030B00086E0224B1A6880239B041340F0D11F4BFB
:1030C000DB6A0F22934319007B681A6B1B4B0A4380
:1030D000DA621A4B5B681E4A134019007B68DA6A91
:1030E0007B689B6A1A43154B0A435A60134B1A6854
:1030F000124B802149040A431A60FFF723FA0300A8
:10310000BB6108E0FFF71EFA0200BB69D31A022B6D
:1031100001D9032354E0094B1A6880239B04134010
:10312000F0D04CE0054B1A68044B08490A401A607D
:10313000FFF708FA0300BB6115E0C046001002402B
:1031400088130000FFFFFFEFFFFFFEFFFFFFFFFE02
:10315000FF7FC2FFFFF7F6F90200BB69D31A022B0B
:1031600001D903232CE0184B1A6880239B041340D9
:10317000F0D124E07B685B6A012B01D101231FE0C1
:10318000114B5B687B61104BDB6A3B617A69C02342
:103190005B021A407B689B6A9A420ED13B690F2200
:1031A0001A407B681B6B9A4207D17A69F0239B0314
:1031B0001A407B68DB6A9A4201D0012300E00023B9
:1031C0001800BD4608B080BD0010024080B584B034
:1031D00000AF786039607B68002B01D10123BFE02C
:1031E000614B1B68012213403A689A4211D95E4B29
:1031F0001B680122934319005B4B3A680A431A602B
:10320000594B1B68012213403A689A4201D00123AE
:10321000A6E07B681B680222134015D07B681B6800
:103220000422134006D0514B5A68504BE021C9008C
:103230000A435A604D4B5B68F022934319007B6848
:103240009A684A4B0A435A607B681B680122134004
:103250004CD07B685B68012B07D1444B1A688023F4
:103260009B02134020D101237AE07B685B68022B2C
:1032700007D13E4B1A6880239B04134014D10123CD
:103280006EE07B685B68032B07D1384B5A6B802359
:103290009B02134008D1012362E0344B1B680222D9
:1032A000134001D101235BE0304B5B680322934361
:1032B00019007B685A682D4B0A435A60FFF742F9A0
:1032C0000300FB6009E0FFF73DF90200FB68D31A39
:1032D000274A934201D9032342E0244B5B680C2226
:1032E0001A407B685B689B009A42ECD11E4B1B68BE
:1032F000012213403A689A4211D21B4B1B680122EB
:1033000093431900184B3A680A431A60164B1B681E
:10331000012213403A689A4201D0012320E07B68E1
:103320001B680422134009D0104B5B68114A1340FC
:1033300019007B68DA680D4B0A435A6000F020F8E8
:1033400001000A4B5B681B090F2213400A4AD35C39
:103350000A00DA40094B1A600020FFF7ADF800239D
:103360001800BD4604B080BD00200240001002409D
:1033700088130000FFF8FFFFF03D00080000002068
:1033800080B586B000AF0023FB600023BB60002344
:103390007B6100237B6000233B612D4B5B68FB60FE
:1033A000FB680C2213400C2B46D048D8042B02D0CB
:1033B000082B03D043E0274B3B6143E0FB689B0CA9
:1033C0000F221340244AD35C7B60214BDB6A0F221F
:1033D0001340224AD35CBB60FA68C0235B021A40E8
:1033E00080235B029A4209D1B9681A48FCF78CFE27
:1033F00003001A007B6853437B611AE0FA68C0231C
:103400005B021A40C0235B029A4209D1B968144892
:10341000FCF77AFE03001A007B6853437B6108E0E7
:10342000B9680C48FCF770FE03001A007B68534330
:103430007B617B693B6105E0094B3B6102E0054B29
:103440003B61C0463B691800BD4606B080BDC04622
:103450000010024000127A00003E0008103E0008F2
:10346000006CDC0280B582B000AF78607B68002B16
:1034700001D1012342E07B683D229B5CDBB2002B43
:1034800007D17B683C22002199547B681800FEF725
:1034900059FF7B683D22022199547B681A687B683A
:1034A00004331900100000F0ABFA7B6846220121BA
:1034B00099547B683E22012199547B683F22012167
:1034C00099547B684022012199547B684122012153
:1034D00099547B684222012199547B68432201213F
:1034E00099547B684422012199547B68452201212B
:1034F00099547B683D220121995400231800BD4650
:1035000002B080BD80B584B000AF78607B683D229A
:103510009B5CDBB2012B01D0012333E07B683D22B1
:10352000022199547B681B68184A93420FD07B682C
:103530001A688023DB059A4209D07B681B68144A0D
:10354000934204D07B681B68124A934211D17B6876
:103550001B689B6807221340FB60FB68062B10D09A
:103560007B681B681A687B681B6801210A431A6024
:1035700007E07B681B681A687B681B6801210A43A7
:103580001A6000231800BD4604B080BD002C014025
:10359000000400400040014080B584B000AF786076
:1035A0007B683D229B5CDBB2012B01D001233BE019
:1035B0007B683D22022199547B681B68DA687B682E
:1035C0001B6801210A43DA607B681B68184A934232
:1035D0000FD07B681A688023DB059A4209D07B688C
:1035E0001B68144A934204D07B681B68124A9342BA
:1035F00011D17B681B689B6807221340FB60FB6846
:10360000062B10D07B681B681A687B681B68012139
:103610000A431A6007E07B681B681A687B681B68AE
:1036200001210A431A6000231800BD4604B080BD82
:10363000002C0140000400400040014080B584B0EF
:1036400000AF78607B681B68DB68FB607B681B6889
:103650001B69BB60BB680222134021D0FB680222B9
:1036600013401DD07B681B68032252421A617B689D
:1036700001221A777B681B689B690322134004D0E0
:103680007B68180000F0A4F907E07B68180000F0E0
:1036900097F97B68180000F0A3F97B6800221A777D
:1036A000BB680422134022D0FB68042213401ED0C2
:1036B0007B681B68052252421A617B6802221A77D6
:1036C0007B681B689A69C0239B00134004D07B6809
:1036D000180000F07DF907E07B68180000F070F931
:1036E0007B68180000F07CF97B6800221A77BB68C1
:1036F0000822134021D0FB68082213401DD07B68AC
:103700001B68092252421A617B6804221A777B687F
:103710001B68DB690322134004D07B68180000F0AB
:1037200057F907E07B68180000F04AF97B68180039
:1037300000F056F97B6800221A77BB68102213400C
:1037400022D0FB68102213401ED07B681B68112218
:1037500052421A617B6808221A777B681B68DA6913
:10376000C0239B00134004D07B68180000F030F9A0
:1037700007E07B68180000F023F97B68180000F070
:103780002FF97B6800221A77BB68012213400CD006
:10379000FB680122134008D07B681B68022252425A
:1037A0001A617B681800FEF787FDBB688022134012
:1037B0000CD0FB688022134008D07B681B688122F4
:1037C00052421A617B68180000F0A8FABB684022D8
:1037D00013400CD0FB684022134008D07B681B6864
:1037E000412252421A617B68180000F001F9BB685F
:1037F000202213400CD0FB682022134008D07B68A5
:103800001B68212252421A617B68180000F07EFA80
:10381000C046BD4604B080BD80B584B000AF7860BE
:1038200039600F23FB1800221A707B683C229B5CD6
:10383000012B01D10223BCE07B683C220121995479
:103840007B683D22022199547B681B689B68BB60A2
:10385000BB6877229343BB60BB68584A1340BB6088
:103860007B681B68BA689A603B681B68802292017B
:10387000934240D080229201934200D988E0802276
:103880005201934200D188E080225201934200D934
:103890007EE0702B18D000D97AE0602B4FD000D991
:1038A00076E0502B3BD000D972E0402B57D000D9A6
:1038B0006EE0302B63D06BD8202B60D068D8002B03
:1038C0005DD0102B5BD063E07B6818683B6899681B
:1038D0003B685A683B68DB6800F09AF97B681B68B4
:1038E0009B68BB60BB6877221343BB607B681B6827
:1038F000BA689A6052E07B6818683B6899683B68D0
:103900005A683B68DB6800F083F97B681B689A683B
:103910007B681B688021C9010A439A603EE07B688E
:1039200018683B6859683B68DB681A0000F0F6F8D5
:103930007B681B685021180000F050F92EE07B686E
:1039400018683B6859683B68DB681A0000F014F996
:103950007B681B686021180000F040F91EE07B685E
:1039600018683B6859683B68DB681A0000F0D6F8B5
:103970007B681B684021180000F030F90EE07B687E
:103980001A683B681B681900100000F027F905E071
:103990000F23FB1801221A7000E0C0467B683D220D
:1039A000012199547B683C22002199540F23FB1874
:1039B0001B781800BD4604B080BDC046FF00FFFF65
:1039C00080B582B000AF7860C046BD4602B080BD11
:1039D00080B582B000AF7860C046BD4602B080BD01
:1039E00080B582B000AF7860C046BD4602B080BDF1
:1039F00080B582B000AF7860C046BD4602B080BDE1
:103A000080B584B000AF786039607B681B68FB606C
:103A10007B683B4A934208D07A688023DB059A4250
:103A200003D07B68374A934208D1FB6870229343E6
:103A3000FB603B685B68FA681343FB607B68304A55
:103A4000934218D07A688023DB059A4213D07B68B2
:103A50002C4A93420FD07B682B4A93420BD07B6851
:103A60002A4A934207D07B68294A934203D07B6855
:103A7000284A934208D1FB68274A1340FB603B6801
:103A8000DB68FA681343FB60FB68802293431A00EB
:103A90003B685B691343FB607B68FA681A603B68AC
:103AA0009A687B68DA623B681A687B689A627B680E
:103AB000134A93420BD07B68144A934207D07B6829
:103AC000134A934203D07B68124A934203D13B6866
:103AD0001A697B681A637B6801225A617B681B69DB
:103AE00001221340012B06D17B681B6901229343FD
:103AF0001A007B681A61C046BD4604B080BDC0464E
:103B0000002C014000040040002000400040014023
:103B10000044014000480140FFFCFFFF80B586B033
:103B200000AFF860B9607A60FB681B6A7B61FB6874
:103B30001B6A012293431A00FB681A62FB689B69A7
:103B40003B613B69F02293433B617B681B013A690F
:103B500013433B617B690A2293437B617A69BB68AB
:103B600013437B61FB683A699A61FB687A691A6260
:103B7000C046BD4606B080BD80B586B000AFF860D7
:103B8000B9607A60FB681B6A7B61FB681B6A102264
:103B900093431A00FB681A62FB689B693B613B69AF
:103BA0000D4A13403B617B681B033A6913433B6139
:103BB0007B69A02293437B61BB681B017A69134335
:103BC0007B61FB683A699A61FB687A691A62C04650
:103BD000BD4606B080BDC046FF0FFFFF80B584B074
:103BE00000AF786039607B689B68FB60FB6870227F
:103BF0009343FB603A68FB68134307221343FB605F
:103C00007B68FA689A60C046BD4604B080BD00007B
:103C100080B586B000AFF860B9607A603B60FB6841
:103C20009B687B617B69094A13407B613B681A0290
:103C30007B681A43BB6813437A6913437B61FB6853
:103C40007A699A60C046BD4606B080BDFF00FFFF9E
:103C500080B584B000AF786039607B683C229B5CA3
:103C6000012B01D1022347E07B683C2201219954BA
:103C70007B683D22022199547B681B685B68FB606E
:103C80007B681B689B68BB60FB6870229343FB608A
:103C90003B681B68FA681343FB607B681B68FA6823
:103CA0005A607B681B68164A93420FD07B681A687B
:103CB0008023DB059A4209D07B681B68114A934236
:103CC00004D07B681B68104A93420CD1BB688022E9
:103CD0009343BB603B685B68BA681343BB607B6817
:103CE0001B68BA689A607B683D22012199547B6801
:103CF0003C220021995400231800BD4604B080BD29
:103D0000002C0140000400400040014080B582B01A
:103D100000AF7860C046BD4602B080BD80B582B0BD
:103D200000AF7860C046BD4602B080BD0300821877
:103D3000934200D1704719700133F9E770B500263E
:103D40000C4C0D4D641BA410A64209D1002600F0B6
:103D500023F80A4C0A4D641BA410A64205D170BD7D
:103D6000B300EB5898470136EEE7B300EB5898479D
:103D70000136F2E7203E0008203E0008243E0008FD
:103D8000203E0008002310B59A4200D110BDCC5C43
:103D9000C4540133F8E70000F8B5C046F8BC08BCCD
:103DA0009E467047F8B5C046F8BC08BC9E467047B2
:103DB000C0030008B203000890030008BC03000819
:103DC00090030008A606000890030008BC03000842
:103DD000B2030008B2030008A6060008BC030008EE
:103DE0007803000878030008780300081807000823
:103DF000000000000000000001020304060708099B
:103E000002030405060708090A0B0C0D0E0F10101B
:103E10000102030405060708090A0B0C0D0E0F101A
:043E2000E9000008AD
:043E2400C1000008D1
:0C3E280000127A000400000001000000FD
:040000050800243D8E
:00000001FF
